{
  "contractName": "Election",
  "abi": [
    {
      "constant": true,
      "inputs": [],
      "name": "candidatesCount",
      "outputs": [
        {
          "name": "",
          "type": "uint256"
        }
      ],
      "payable": false,
      "stateMutability": "view",
      "type": "function"
    },
    {
      "constant": true,
      "inputs": [
        {
          "name": "",
          "type": "uint256"
        }
      ],
      "name": "candidates",
      "outputs": [
        {
          "name": "name",
          "type": "string"
        },
        {
          "name": "party",
          "type": "string"
        },
        {
          "name": "voteCount",
          "type": "uint256"
        }
      ],
      "payable": false,
      "stateMutability": "view",
      "type": "function"
    },
    {
      "constant": true,
      "inputs": [
        {
          "name": "",
          "type": "address"
        }
      ],
      "name": "voters",
      "outputs": [
        {
          "name": "",
          "type": "bool"
        }
      ],
      "payable": false,
      "stateMutability": "view",
      "type": "function"
    },
    {
      "constant": true,
      "inputs": [
        {
          "name": "",
          "type": "address"
        }
      ],
      "name": "voterNames",
      "outputs": [
        {
          "name": "",
          "type": "string"
        }
      ],
      "payable": false,
      "stateMutability": "view",
      "type": "function"
    },
    {
      "constant": true,
      "inputs": [],
      "name": "admin",
      "outputs": [
        {
          "name": "",
          "type": "address"
        }
      ],
      "payable": false,
      "stateMutability": "view",
      "type": "function"
    },
    {
      "inputs": [],
      "payable": false,
      "stateMutability": "nonpayable",
      "type": "constructor"
    },
    {
      "anonymous": false,
      "inputs": [
        {
          "indexed": false,
          "name": "candidateName",
          "type": "string"
        },
        {
          "indexed": false,
          "name": "voterName",
          "type": "string"
        }
      ],
      "name": "votedEvent",
      "type": "event"
    },
    {
      "anonymous": false,
      "inputs": [
        {
          "indexed": false,
          "name": "name",
          "type": "string"
        },
        {
          "indexed": false,
          "name": "party",
          "type": "string"
        }
      ],
      "name": "candidateAdded",
      "type": "event"
    },
    {
      "constant": false,
      "inputs": [
        {
          "name": "_name",
          "type": "string"
        },
        {
          "name": "_party",
          "type": "string"
        }
      ],
      "name": "adminAddCandidate",
      "outputs": [],
      "payable": false,
      "stateMutability": "nonpayable",
      "type": "function"
    },
    {
      "constant": false,
      "inputs": [
        {
          "name": "_candidateNumber",
          "type": "uint256"
        },
        {
          "name": "_voterName",
          "type": "string"
        }
      ],
      "name": "vote",
      "outputs": [],
      "payable": false,
      "stateMutability": "nonpayable",
      "type": "function"
    }
  ],
  "bytecode": "0x6060604052341561000f57600080fd5b336000806101000a81548173ffffffffffffffffffffffffffffffffffffffff021916908373ffffffffffffffffffffffffffffffffffffffff160217905550610b548061005e6000396000f300606060405260043610610083576000357c0100000000000000000000000000000000000000000000000000000000900463ffffffff16806324108475146100885780632d35a8a2146100ee5780633477ee2e14610117578063a3ec138d14610260578063f140cf91146102b1578063f851a44014610363578063f97abfed146103b8575b600080fd5b341561009357600080fd5b6100ec600480803590602001909190803590602001908201803590602001908080601f01602080910402602001604051908101604052809392919081815260200183838082843782019150505050505091905050610458565b005b34156100f957600080fd5b6101016106df565b6040518082815260200191505060405180910390f35b341561012257600080fd5b61013860048080359060200190919050506106e5565b6040518080602001806020018481526020018381038352868181546001816001161561010002031660029004815260200191508054600181600116156101000203166002900480156101cb5780601f106101a0576101008083540402835291602001916101cb565b820191906000526020600020905b8154815290600101906020018083116101ae57829003601f168201915b505083810382528581815460018160011615610100020316600290048152602001915080546001816001161561010002031660029004801561024e5780601f106102235761010080835404028352916020019161024e565b820191906000526020600020905b81548152906001019060200180831161023157829003601f168201915b50509550505050505060405180910390f35b341561026b57600080fd5b610297600480803573ffffffffffffffffffffffffffffffffffffffff1690602001909190505061070d565b604051808215151515815260200191505060405180910390f35b34156102bc57600080fd5b6102e8600480803573ffffffffffffffffffffffffffffffffffffffff1690602001909190505061072d565b6040518080602001828103825283818151815260200191508051906020019080838360005b8381101561032857808201518184015260208101905061030d565b50505050905090810190601f1680156103555780820380516001836020036101000a031916815260200191505b509250505060405180910390f35b341561036e57600080fd5b6103766107dd565b604051808273ffffffffffffffffffffffffffffffffffffffff1673ffffffffffffffffffffffffffffffffffffffff16815260200191505060405180910390f35b34156103c357600080fd5b610456600480803590602001908201803590602001908080601f0160208091040260200160405190810160405280939291908181526020018383808284378201915050505050509190803590602001908201803590602001908080601f01602080910402602001604051908101604052809392919081815260200183838082843782019150505050505091905050610802565b005b600260003373ffffffffffffffffffffffffffffffffffffffff1673ffffffffffffffffffffffffffffffffffffffff16815260200190815260200160002060009054906101000a900460ff161515156104b157600080fd5b6000821180156104c357506004548211155b15156104ce57600080fd5b6001600260003373ffffffffffffffffffffffffffffffffffffffff1673ffffffffffffffffffffffffffffffffffffffff16815260200190815260200160002060006101000a81548160ff02191690831515021790555080600360003373ffffffffffffffffffffffffffffffffffffffff1673ffffffffffffffffffffffffffffffffffffffff1681526020019081526020016000209080519060200190610579929190610a03565b5060016000838152602001908152602001600020600201600081548092919060010191905055507fb72bc004d3c880dde5aa3e326a8cd34deb7b664a4eccf90d78bce917dce6964f60016000848152602001908152602001600020600001826040518080602001806020018381038352858181546001816001161561010002031660029004815260200191508054600181600116156101000203166002900480156106655780601f1061063a57610100808354040283529160200191610665565b820191906000526020600020905b81548152906001019060200180831161064857829003601f168201915b5050838103825284818151815260200191508051906020019080838360005b8381101561069f578082015181840152602081019050610684565b50505050905090810190601f1680156106cc5780820380516001836020036101000a031916815260200191505b5094505050505060405180910390a15050565b60045481565b6001602052806000526040600020600091509050806000019080600101908060020154905083565b60026020528060005260406000206000915054906101000a900460ff1681565b60036020528060005260406000206000915090508054600181600116156101000203166002900480601f0160208091040260200160405190810160405280929190818152602001828054600181600116156101000203166002900480156107d55780601f106107aa576101008083540402835291602001916107d5565b820191906000526020600020905b8154815290600101906020018083116107b857829003601f168201915b505050505081565b6000809054906101000a900473ffffffffffffffffffffffffffffffffffffffff1681565b6000809054906101000a900473ffffffffffffffffffffffffffffffffffffffff1673ffffffffffffffffffffffffffffffffffffffff163373ffffffffffffffffffffffffffffffffffffffff1614151561085d57600080fd5b610867828261086b565b5050565b600460008154809291906001019190505550606060405190810160405280838152602001828152602001600081525060016000600454815260200190815260200160002060008201518160000190805190602001906108cb929190610a83565b5060208201518160010190805190602001906108e8929190610a83565b50604082015181600201559050507f4c3e7b6332fbf4319b5328c98166fac802a6d9e0a2ce32a3b11e762956cfc45f8282604051808060200180602001838103835285818151815260200191508051906020019080838360005b8381101561095d578082015181840152602081019050610942565b50505050905090810190601f16801561098a5780820380516001836020036101000a031916815260200191505b50838103825284818151815260200191508051906020019080838360005b838110156109c35780820151818401526020810190506109a8565b50505050905090810190601f1680156109f05780820380516001836020036101000a031916815260200191505b5094505050505060405180910390a15050565b828054600181600116156101000203166002900490600052602060002090601f016020900481019282601f10610a4457805160ff1916838001178555610a72565b82800160010185558215610a72579182015b82811115610a71578251825591602001919060010190610a56565b5b509050610a7f9190610b03565b5090565b828054600181600116156101000203166002900490600052602060002090601f016020900481019282601f10610ac457805160ff1916838001178555610af2565b82800160010185558215610af2579182015b82811115610af1578251825591602001919060010190610ad6565b5b509050610aff9190610b03565b5090565b610b2591905b80821115610b21576000816000905550600101610b09565b5090565b905600a165627a7a723058207c5a3aa75e58bfe535b7947d14e24eec769c4ce619e72b56e5ae5be9e88e69010029",
  "source": "pragma solidity 0.4.20;\r\n\r\ncontract Election {\r\n    address public admin;\r\n\r\n    // Candidate struct without an ID field.\r\n    struct Candidate {\r\n        string name;\r\n        string party;\r\n        uint voteCount;\r\n    }\r\n    \r\n    // Mapping from candidate number (index) to candidate details.\r\n    mapping(uint => Candidate) public candidates;\r\n    mapping(address => bool) public voters;\r\n    mapping(address => string) public voterNames;\r\n    \r\n    uint public candidatesCount;\r\n    \r\n    // Updated events with no candidate ID.\r\n    event votedEvent(string candidateName, string voterName);\r\n    event candidateAdded(string name, string party);\r\n    \r\n    modifier onlyAdmin() {\r\n        require(msg.sender == admin);\r\n        _;\r\n    }\r\n    \r\n    // Constructor – sets the deployer as admin.\r\n    // Note: No candidates are added by default.\r\n    function Election() public {\r\n        admin = msg.sender;\r\n    }\r\n    \r\n    // Private function to add a candidate.\r\n    function addCandidate(string _name, string _party) private {\r\n        candidatesCount++;\r\n        candidates[candidatesCount] = Candidate(_name, _party, 0);\r\n        candidateAdded(_name, _party);\r\n    }\r\n    \r\n    // Public admin function to add a candidate.\r\n    function adminAddCandidate(string _name, string _party) public onlyAdmin {\r\n        addCandidate(_name, _party);\r\n    }\r\n    \r\n    // Vote function now emits the candidate's name and the voter's name.\r\n    // The candidate is selected via the mapping index (but the struct does not contain the ID)\r\n    function vote(uint _candidateNumber, string _voterName) public {\r\n        require(!voters[msg.sender]);\r\n        require(_candidateNumber > 0 && _candidateNumber <= candidatesCount);\r\n        \r\n        voters[msg.sender] = true;\r\n        voterNames[msg.sender] = _voterName;\r\n        candidates[_candidateNumber].voteCount++;\r\n        \r\n        // Emit event without candidate ID.\r\n        votedEvent(candidates[_candidateNumber].name, _voterName);\r\n    }\r\n}\r\n",
  "sourcePath": "C:\\Users\\prizm\\OneDrive\\Desktop\\election-1\\contracts\\Election.sol",
  "compiler": {
    "name": "solc",
    "version": "0.4.20+commit.3155dd80.Emscripten.clang"
  },
  "schemaVersion": "3.4.16",
  "updatedAt": "2025-04-10T17:11:30.415Z",
  "networkType": "ethereum",
  "devdoc": {
    "methods": {}
  },
  "userdoc": {
    "methods": {}
  }
}